{
  "_format": "hh-sol-artifact-1",
  "contractName": "NFTMarketplace",
  "sourceName": "contracts/NFTMarketplace.sol",
  "abi": [
    {
      "inputs": [],
      "stateMutability": "nonpayable",
      "type": "constructor"
    },
    {
      "anonymous": false,
      "inputs": [
        {
          "indexed": true,
          "internalType": "address",
          "name": "owner",
          "type": "address"
        },
        {
          "indexed": true,
          "internalType": "address",
          "name": "approved",
          "type": "address"
        },
        {
          "indexed": true,
          "internalType": "uint256",
          "name": "tokenId",
          "type": "uint256"
        }
      ],
      "name": "Approval",
      "type": "event"
    },
    {
      "anonymous": false,
      "inputs": [
        {
          "indexed": true,
          "internalType": "address",
          "name": "owner",
          "type": "address"
        },
        {
          "indexed": true,
          "internalType": "address",
          "name": "operator",
          "type": "address"
        },
        {
          "indexed": false,
          "internalType": "bool",
          "name": "approved",
          "type": "bool"
        }
      ],
      "name": "ApprovalForAll",
      "type": "event"
    },
    {
      "anonymous": false,
      "inputs": [
        {
          "indexed": false,
          "internalType": "uint256",
          "name": "_fromTokenId",
          "type": "uint256"
        },
        {
          "indexed": false,
          "internalType": "uint256",
          "name": "_toTokenId",
          "type": "uint256"
        }
      ],
      "name": "BatchMetadataUpdate",
      "type": "event"
    },
    {
      "anonymous": false,
      "inputs": [
        {
          "indexed": true,
          "internalType": "uint256",
          "name": "tokenId",
          "type": "uint256"
        },
        {
          "indexed": false,
          "internalType": "address",
          "name": "seller",
          "type": "address"
        },
        {
          "indexed": false,
          "internalType": "address",
          "name": "owner",
          "type": "address"
        },
        {
          "indexed": false,
          "internalType": "uint256",
          "name": "price",
          "type": "uint256"
        },
        {
          "indexed": false,
          "internalType": "bool",
          "name": "sold",
          "type": "bool"
        }
      ],
      "name": "MarketItemCreated",
      "type": "event"
    },
    {
      "anonymous": false,
      "inputs": [
        {
          "indexed": false,
          "internalType": "uint256",
          "name": "_tokenId",
          "type": "uint256"
        }
      ],
      "name": "MetadataUpdate",
      "type": "event"
    },
    {
      "anonymous": false,
      "inputs": [
        {
          "indexed": true,
          "internalType": "address",
          "name": "from",
          "type": "address"
        },
        {
          "indexed": true,
          "internalType": "address",
          "name": "to",
          "type": "address"
        },
        {
          "indexed": true,
          "internalType": "uint256",
          "name": "tokenId",
          "type": "uint256"
        }
      ],
      "name": "Transfer",
      "type": "event"
    },
    {
      "inputs": [
        {
          "internalType": "address",
          "name": "to",
          "type": "address"
        },
        {
          "internalType": "uint256",
          "name": "tokenId",
          "type": "uint256"
        }
      ],
      "name": "approve",
      "outputs": [],
      "stateMutability": "nonpayable",
      "type": "function"
    },
    {
      "inputs": [
        {
          "internalType": "address",
          "name": "owner",
          "type": "address"
        }
      ],
      "name": "balanceOf",
      "outputs": [
        {
          "internalType": "uint256",
          "name": "",
          "type": "uint256"
        }
      ],
      "stateMutability": "view",
      "type": "function"
    },
    {
      "inputs": [
        {
          "internalType": "uint256",
          "name": "tokenId",
          "type": "uint256"
        }
      ],
      "name": "createMarketSale",
      "outputs": [],
      "stateMutability": "payable",
      "type": "function"
    },
    {
      "inputs": [
        {
          "internalType": "string",
          "name": "tokenURI",
          "type": "string"
        },
        {
          "internalType": "uint256",
          "name": "price",
          "type": "uint256"
        }
      ],
      "name": "createToken",
      "outputs": [
        {
          "internalType": "uint256",
          "name": "",
          "type": "uint256"
        }
      ],
      "stateMutability": "payable",
      "type": "function"
    },
    {
      "inputs": [],
      "name": "fetchItemsListed",
      "outputs": [
        {
          "components": [
            {
              "internalType": "uint256",
              "name": "tokenId",
              "type": "uint256"
            },
            {
              "internalType": "address payable",
              "name": "seller",
              "type": "address"
            },
            {
              "internalType": "address payable",
              "name": "owner",
              "type": "address"
            },
            {
              "internalType": "uint256",
              "name": "price",
              "type": "uint256"
            },
            {
              "internalType": "bool",
              "name": "sold",
              "type": "bool"
            }
          ],
          "internalType": "struct NFTMarketplace.MarketItem[]",
          "name": "",
          "type": "tuple[]"
        }
      ],
      "stateMutability": "view",
      "type": "function"
    },
    {
      "inputs": [],
      "name": "fetchMarketItem",
      "outputs": [
        {
          "components": [
            {
              "internalType": "uint256",
              "name": "tokenId",
              "type": "uint256"
            },
            {
              "internalType": "address payable",
              "name": "seller",
              "type": "address"
            },
            {
              "internalType": "address payable",
              "name": "owner",
              "type": "address"
            },
            {
              "internalType": "uint256",
              "name": "price",
              "type": "uint256"
            },
            {
              "internalType": "bool",
              "name": "sold",
              "type": "bool"
            }
          ],
          "internalType": "struct NFTMarketplace.MarketItem[]",
          "name": "",
          "type": "tuple[]"
        }
      ],
      "stateMutability": "view",
      "type": "function"
    },
    {
      "inputs": [],
      "name": "fetchMyNFT",
      "outputs": [
        {
          "components": [
            {
              "internalType": "uint256",
              "name": "tokenId",
              "type": "uint256"
            },
            {
              "internalType": "address payable",
              "name": "seller",
              "type": "address"
            },
            {
              "internalType": "address payable",
              "name": "owner",
              "type": "address"
            },
            {
              "internalType": "uint256",
              "name": "price",
              "type": "uint256"
            },
            {
              "internalType": "bool",
              "name": "sold",
              "type": "bool"
            }
          ],
          "internalType": "struct NFTMarketplace.MarketItem[]",
          "name": "",
          "type": "tuple[]"
        }
      ],
      "stateMutability": "view",
      "type": "function"
    },
    {
      "inputs": [
        {
          "internalType": "uint256",
          "name": "tokenId",
          "type": "uint256"
        }
      ],
      "name": "getApproved",
      "outputs": [
        {
          "internalType": "address",
          "name": "",
          "type": "address"
        }
      ],
      "stateMutability": "view",
      "type": "function"
    },
    {
      "inputs": [],
      "name": "getListingPrice",
      "outputs": [
        {
          "internalType": "uint256",
          "name": "",
          "type": "uint256"
        }
      ],
      "stateMutability": "view",
      "type": "function"
    },
    {
      "inputs": [
        {
          "internalType": "address",
          "name": "owner",
          "type": "address"
        },
        {
          "internalType": "address",
          "name": "operator",
          "type": "address"
        }
      ],
      "name": "isApprovedForAll",
      "outputs": [
        {
          "internalType": "bool",
          "name": "",
          "type": "bool"
        }
      ],
      "stateMutability": "view",
      "type": "function"
    },
    {
      "inputs": [],
      "name": "name",
      "outputs": [
        {
          "internalType": "string",
          "name": "",
          "type": "string"
        }
      ],
      "stateMutability": "view",
      "type": "function"
    },
    {
      "inputs": [
        {
          "internalType": "uint256",
          "name": "tokenId",
          "type": "uint256"
        }
      ],
      "name": "ownerOf",
      "outputs": [
        {
          "internalType": "address",
          "name": "",
          "type": "address"
        }
      ],
      "stateMutability": "view",
      "type": "function"
    },
    {
      "inputs": [
        {
          "internalType": "uint256",
          "name": "tokenId",
          "type": "uint256"
        },
        {
          "internalType": "uint256",
          "name": "price",
          "type": "uint256"
        }
      ],
      "name": "reSellToken",
      "outputs": [],
      "stateMutability": "payable",
      "type": "function"
    },
    {
      "inputs": [
        {
          "internalType": "address",
          "name": "from",
          "type": "address"
        },
        {
          "internalType": "address",
          "name": "to",
          "type": "address"
        },
        {
          "internalType": "uint256",
          "name": "tokenId",
          "type": "uint256"
        }
      ],
      "name": "safeTransferFrom",
      "outputs": [],
      "stateMutability": "nonpayable",
      "type": "function"
    },
    {
      "inputs": [
        {
          "internalType": "address",
          "name": "from",
          "type": "address"
        },
        {
          "internalType": "address",
          "name": "to",
          "type": "address"
        },
        {
          "internalType": "uint256",
          "name": "tokenId",
          "type": "uint256"
        },
        {
          "internalType": "bytes",
          "name": "data",
          "type": "bytes"
        }
      ],
      "name": "safeTransferFrom",
      "outputs": [],
      "stateMutability": "nonpayable",
      "type": "function"
    },
    {
      "inputs": [
        {
          "internalType": "address",
          "name": "operator",
          "type": "address"
        },
        {
          "internalType": "bool",
          "name": "approved",
          "type": "bool"
        }
      ],
      "name": "setApprovalForAll",
      "outputs": [],
      "stateMutability": "nonpayable",
      "type": "function"
    },
    {
      "inputs": [
        {
          "internalType": "bytes4",
          "name": "interfaceId",
          "type": "bytes4"
        }
      ],
      "name": "supportsInterface",
      "outputs": [
        {
          "internalType": "bool",
          "name": "",
          "type": "bool"
        }
      ],
      "stateMutability": "view",
      "type": "function"
    },
    {
      "inputs": [],
      "name": "symbol",
      "outputs": [
        {
          "internalType": "string",
          "name": "",
          "type": "string"
        }
      ],
      "stateMutability": "view",
      "type": "function"
    },
    {
      "inputs": [
        {
          "internalType": "uint256",
          "name": "tokenId",
          "type": "uint256"
        }
      ],
      "name": "tokenURI",
      "outputs": [
        {
          "internalType": "string",
          "name": "",
          "type": "string"
        }
      ],
      "stateMutability": "view",
      "type": "function"
    },
    {
      "inputs": [
        {
          "internalType": "address",
          "name": "from",
          "type": "address"
        },
        {
          "internalType": "address",
          "name": "to",
          "type": "address"
        },
        {
          "internalType": "uint256",
          "name": "tokenId",
          "type": "uint256"
        }
      ],
      "name": "transferFrom",
      "outputs": [],
      "stateMutability": "nonpayable",
      "type": "function"
    },
    {
      "inputs": [
        {
          "internalType": "uint256",
          "name": "_listingPrice",
          "type": "uint256"
        }
      ],
      "name": "updateListingPrice",
      "outputs": [],
      "stateMutability": "payable",
      "type": "function"
    }
  ],
  "bytecode": "0x60806040526605543df729c0006009553480156200001c57600080fd5b506040518060400160405280601381526020017f4e4654204d657461766572736520546f6b656e000000000000000000000000008152506040518060400160405280600581526020017f4d594e465400000000000000000000000000000000000000000000000000000081525081600090816200009a919062000370565b508060019081620000ac919062000370565b50505033600a60006101000a81548173ffffffffffffffffffffffffffffffffffffffff021916908373ffffffffffffffffffffffffffffffffffffffff16021790555062000457565b600081519050919050565b7f4e487b7100000000000000000000000000000000000000000000000000000000600052604160045260246000fd5b7f4e487b7100000000000000000000000000000000000000000000000000000000600052602260045260246000fd5b600060028204905060018216806200017857607f821691505b6020821081036200018e576200018d62000130565b5b50919050565b60008190508160005260206000209050919050565b60006020601f8301049050919050565b600082821b905092915050565b600060088302620001f87fffffffffffffffffffffffffffffffffffffffffffffffffffffffffffffffff82620001b9565b620002048683620001b9565b95508019841693508086168417925050509392505050565b6000819050919050565b6000819050919050565b6000620002516200024b62000245846200021c565b62000226565b6200021c565b9050919050565b6000819050919050565b6200026d8362000230565b620002856200027c8262000258565b848454620001c6565b825550505050565b600090565b6200029c6200028d565b620002a981848462000262565b505050565b5b81811015620002d157620002c560008262000292565b600181019050620002af565b5050565b601f8211156200032057620002ea8162000194565b620002f584620001a9565b8101602085101562000305578190505b6200031d6200031485620001a9565b830182620002ae565b50505b505050565b600082821c905092915050565b6000620003456000198460080262000325565b1980831691505092915050565b600062000360838362000332565b9150826002028217905092915050565b6200037b82620000f6565b67ffffffffffffffff81111562000397576200039662000101565b5b620003a382546200015f565b620003b0828285620002d5565b600060209050601f831160018114620003e85760008415620003d3578287015190505b620003df858262000352565b8655506200044f565b601f198416620003f88662000194565b60005b828110156200042257848901518255600182019150602085019450602081019050620003fb565b868310156200044257848901516200043e601f89168262000332565b8355505b6001600288020188555050505b505050505050565b61420f80620004676000396000f3fe60806040526004361061012a5760003560e01c806372b3b620116100ab578063ae677aa31161006f578063ae677aa3146103ea578063b88d4fde14610406578063be9af5361461042f578063c18763f71461044b578063c87b56dd14610476578063e985e9c5146104b35761012a565b806372b3b6201461031f57806385535b251461034f5780638fafd0211461036b57806395d89b4114610396578063a22cb465146103c15761012a565b806323b872dd116100f257806323b872dd1461022857806342842e0e1461025157806345f8fa801461027a5780636352211e146102a557806370a08231146102e25761012a565b806301ffc9a71461012f57806306fdde031461016c578063081812fc14610197578063095ea7b3146101d457806312e85585146101fd575b600080fd5b34801561013b57600080fd5b5061015660048036038101906101519190612b1b565b6104f0565b6040516101639190612b63565b60405180910390f35b34801561017857600080fd5b50610181610551565b60405161018e9190612c0e565b60405180910390f35b3480156101a357600080fd5b506101be60048036038101906101b99190612c66565b6105e3565b6040516101cb9190612cd4565b60405180910390f35b3480156101e057600080fd5b506101fb60048036038101906101f69190612d1b565b610629565b005b34801561020957600080fd5b50610212610740565b60405161021f9190612d6a565b60405180910390f35b34801561023457600080fd5b5061024f600480360381019061024a9190612d85565b61074a565b005b34801561025d57600080fd5b5061027860048036038101906102739190612d85565b6107aa565b005b34801561028657600080fd5b5061028f6107ca565b60405161029c9190612f2e565b60405180910390f35b3480156102b157600080fd5b506102cc60048036038101906102c79190612c66565b610aaa565b6040516102d99190612cd4565b60405180910390f35b3480156102ee57600080fd5b5061030960048036038101906103049190612f50565b610b30565b6040516103169190612d6a565b60405180910390f35b610339600480360381019061033491906130b2565b610be7565b6040516103469190612d6a565b60405180910390f35b6103696004803603810190610364919061310e565b610c29565b005b34801561037757600080fd5b50610380610e1e565b60405161038d9190612f2e565b60405180910390f35b3480156103a257600080fd5b506103ab611080565b6040516103b89190612c0e565b60405180910390f35b3480156103cd57600080fd5b506103e860048036038101906103e3919061317a565b611112565b005b61040460048036038101906103ff9190612c66565b611128565b005b34801561041257600080fd5b5061042d6004803603810190610428919061325b565b6111c2565b005b61044960048036038101906104449190612c66565b611224565b005b34801561045757600080fd5b50610460611406565b60405161046d9190612f2e565b60405180910390f35b34801561048257600080fd5b5061049d60048036038101906104989190612c66565b6116e6565b6040516104aa9190612c0e565b60405180910390f35b3480156104bf57600080fd5b506104da60048036038101906104d591906132de565b6117f8565b6040516104e79190612b63565b60405180910390f35b6000634906490660e01b7bffffffffffffffffffffffffffffffffffffffffffffffffffffffff1916827bffffffffffffffffffffffffffffffffffffffffffffffffffffffff1916148061054a57506105498261188c565b5b9050919050565b6060600080546105609061334d565b80601f016020809104026020016040519081016040528092919081815260200182805461058c9061334d565b80156105d95780601f106105ae576101008083540402835291602001916105d9565b820191906000526020600020905b8154815290600101906020018083116105bc57829003601f168201915b5050505050905090565b60006105ee8261196e565b6004600083815260200190815260200160002060009054906101000a900473ffffffffffffffffffffffffffffffffffffffff169050919050565b600061063482610aaa565b90508073ffffffffffffffffffffffffffffffffffffffff168373ffffffffffffffffffffffffffffffffffffffff16036106a4576040517f08c379a000000000000000000000000000000000000000000000000000000000815260040161069b906133f0565b60405180910390fd5b8073ffffffffffffffffffffffffffffffffffffffff166106c36119b9565b73ffffffffffffffffffffffffffffffffffffffff1614806106f257506106f1816106ec6119b9565b6117f8565b5b610731576040517f08c379a000000000000000000000000000000000000000000000000000000000815260040161072890613482565b60405180910390fd5b61073b83836119c1565b505050565b6000600954905090565b61075b6107556119b9565b82611a7a565b61079a576040517f08c379a000000000000000000000000000000000000000000000000000000000815260040161079190613514565b60405180910390fd5b6107a5838383611b0f565b505050565b6107c5838383604051806020016040528060008152506111c2565b505050565b606060006107d86007611e08565b905060008060005b8381101561087a573373ffffffffffffffffffffffffffffffffffffffff16600b60006001846108109190613563565b815260200190815260200160002060010160009054906101000a900473ffffffffffffffffffffffffffffffffffffffff1673ffffffffffffffffffffffffffffffffffffffff160361086d5760018361086a9190613563565b92505b80806001019150506107e0565b5060008267ffffffffffffffff81111561089757610896612f87565b5b6040519080825280602002602001820160405280156108d057816020015b6108bd612a52565b8152602001906001900390816108b55790505b50905060005b84811015610a9f573373ffffffffffffffffffffffffffffffffffffffff16600b60006001846109069190613563565b815260200190815260200160002060010160009054906101000a900473ffffffffffffffffffffffffffffffffffffffff1673ffffffffffffffffffffffffffffffffffffffff1603610a925760006001826109629190613563565b90506000600b60008381526020019081526020016000209050806040518060a0016040529081600082015481526020016001820160009054906101000a900473ffffffffffffffffffffffffffffffffffffffff1673ffffffffffffffffffffffffffffffffffffffff1673ffffffffffffffffffffffffffffffffffffffff1681526020016002820160009054906101000a900473ffffffffffffffffffffffffffffffffffffffff1673ffffffffffffffffffffffffffffffffffffffff1673ffffffffffffffffffffffffffffffffffffffff168152602001600382015481526020016004820160009054906101000a900460ff161515151581525050848681518110610a7557610a74613597565b5b6020026020010181905250600185610a8d9190613563565b945050505b80806001019150506108d6565b508094505050505090565b600080610ab683611e16565b9050600073ffffffffffffffffffffffffffffffffffffffff168173ffffffffffffffffffffffffffffffffffffffff1603610b27576040517f08c379a0000000000000000000000000000000000000000000000000000000008152600401610b1e90613612565b60405180910390fd5b80915050919050565b60008073ffffffffffffffffffffffffffffffffffffffff168273ffffffffffffffffffffffffffffffffffffffff1603610ba0576040517f08c379a0000000000000000000000000000000000000000000000000000000008152600401610b97906136a4565b60405180910390fd5b600360008373ffffffffffffffffffffffffffffffffffffffff1673ffffffffffffffffffffffffffffffffffffffff168152602001908152602001600020549050919050565b6000610bf36007611e53565b6000610bff6007611e08565b9050610c0b3382611e69565b610c158185612086565b610c1f818461212a565b8091505092915050565b3373ffffffffffffffffffffffffffffffffffffffff16600b600084815260200190815260200160002060020160009054906101000a900473ffffffffffffffffffffffffffffffffffffffff1673ffffffffffffffffffffffffffffffffffffffff1614610ccd576040517f08c379a0000000000000000000000000000000000000000000000000000000008152600401610cc490613736565b60405180910390fd5b6009543414610d11576040517f08c379a0000000000000000000000000000000000000000000000000000000008152600401610d08906137c8565b60405180910390fd5b6000600b600084815260200190815260200160002060040160006101000a81548160ff02191690831515021790555080600b60008481526020019081526020016000206003018190555033600b600084815260200190815260200160002060010160006101000a81548173ffffffffffffffffffffffffffffffffffffffff021916908373ffffffffffffffffffffffffffffffffffffffff16021790555030600b600084815260200190815260200160002060020160006101000a81548173ffffffffffffffffffffffffffffffffffffffff021916908373ffffffffffffffffffffffffffffffffffffffff160217905550610e0f600861232d565b610e1a333084611b0f565b5050565b60606000610e2c6007611e08565b90506000610e3a6008611e08565b610e446007611e08565b610e4e91906137e8565b90506000808267ffffffffffffffff811115610e6d57610e6c612f87565b5b604051908082528060200260200182016040528015610ea657816020015b610e93612a52565b815260200190600190039081610e8b5790505b50905060005b84811015611075573073ffffffffffffffffffffffffffffffffffffffff16600b6000600184610edc9190613563565b815260200190815260200160002060020160009054906101000a900473ffffffffffffffffffffffffffffffffffffffff1673ffffffffffffffffffffffffffffffffffffffff1603611068576000600182610f389190613563565b90506000600b60008381526020019081526020016000209050806040518060a0016040529081600082015481526020016001820160009054906101000a900473ffffffffffffffffffffffffffffffffffffffff1673ffffffffffffffffffffffffffffffffffffffff1673ffffffffffffffffffffffffffffffffffffffff1681526020016002820160009054906101000a900473ffffffffffffffffffffffffffffffffffffffff1673ffffffffffffffffffffffffffffffffffffffff1673ffffffffffffffffffffffffffffffffffffffff168152602001600382015481526020016004820160009054906101000a900460ff16151515158152505084868151811061104b5761104a613597565b5b60200260200101819052506001856110639190613563565b945050505b8080600101915050610eac565b508094505050505090565b60606001805461108f9061334d565b80601f01602080910402602001604051908101604052809291908181526020018280546110bb9061334d565b80156111085780601f106110dd57610100808354040283529160200191611108565b820191906000526020600020905b8154815290600101906020018083116110eb57829003601f168201915b5050505050905090565b61112461111d6119b9565b8383612389565b5050565b600a60009054906101000a900473ffffffffffffffffffffffffffffffffffffffff1673ffffffffffffffffffffffffffffffffffffffff163373ffffffffffffffffffffffffffffffffffffffff16146111b8576040517f08c379a00000000000000000000000000000000000000000000000000000000081526004016111af9061388e565b60405180910390fd5b8060098190555050565b6111d36111cd6119b9565b83611a7a565b611212576040517f08c379a000000000000000000000000000000000000000000000000000000000815260040161120990613514565b60405180910390fd5b61121e848484846124f5565b50505050565b6000600b6000838152602001908152602001600020600301549050803414611281576040517f08c379a000000000000000000000000000000000000000000000000000000000815260040161127890613920565b60405180910390fd5b33600b600084815260200190815260200160002060020160006101000a81548173ffffffffffffffffffffffffffffffffffffffff021916908373ffffffffffffffffffffffffffffffffffffffff1602179055506001600b600084815260200190815260200160002060040160006101000a81548160ff02191690831515021790555061130f6008611e53565b61131a303384611b0f565b600a60009054906101000a900473ffffffffffffffffffffffffffffffffffffffff1673ffffffffffffffffffffffffffffffffffffffff166108fc6009549081150290604051600060405180830381858888f19350505050158015611384573d6000803e3d6000fd5b50600b600083815260200190815260200160002060010160009054906101000a900473ffffffffffffffffffffffffffffffffffffffff1673ffffffffffffffffffffffffffffffffffffffff166108fc349081150290604051600060405180830381858888f19350505050158015611401573d6000803e3d6000fd5b505050565b606060006114146007611e08565b905060008060005b838110156114b6573373ffffffffffffffffffffffffffffffffffffffff16600b600060018461144c9190613563565b815260200190815260200160002060020160009054906101000a900473ffffffffffffffffffffffffffffffffffffffff1673ffffffffffffffffffffffffffffffffffffffff16036114a9576001836114a69190613563565b92505b808060010191505061141c565b5060008267ffffffffffffffff8111156114d3576114d2612f87565b5b60405190808252806020026020018201604052801561150c57816020015b6114f9612a52565b8152602001906001900390816114f15790505b50905060005b848110156116db573373ffffffffffffffffffffffffffffffffffffffff16600b60006001846115429190613563565b815260200190815260200160002060020160009054906101000a900473ffffffffffffffffffffffffffffffffffffffff1673ffffffffffffffffffffffffffffffffffffffff16036116ce57600060018261159e9190613563565b90506000600b60008381526020019081526020016000209050806040518060a0016040529081600082015481526020016001820160009054906101000a900473ffffffffffffffffffffffffffffffffffffffff1673ffffffffffffffffffffffffffffffffffffffff1673ffffffffffffffffffffffffffffffffffffffff1681526020016002820160009054906101000a900473ffffffffffffffffffffffffffffffffffffffff1673ffffffffffffffffffffffffffffffffffffffff1673ffffffffffffffffffffffffffffffffffffffff168152602001600382015481526020016004820160009054906101000a900460ff1615151515815250508486815181106116b1576116b0613597565b5b60200260200101819052506001856116c99190613563565b945050505b8080600101915050611512565b508094505050505090565b60606116f18261196e565b60006006600084815260200190815260200160002080546117119061334d565b80601f016020809104026020016040519081016040528092919081815260200182805461173d9061334d565b801561178a5780601f1061175f5761010080835404028352916020019161178a565b820191906000526020600020905b81548152906001019060200180831161176d57829003601f168201915b50505050509050600061179b612551565b905060008151036117b05781925050506117f3565b6000825111156117e55780826040516020016117cd92919061397c565b604051602081830303815290604052925050506117f3565b6117ee84612568565b925050505b919050565b6000600560008473ffffffffffffffffffffffffffffffffffffffff1673ffffffffffffffffffffffffffffffffffffffff16815260200190815260200160002060008373ffffffffffffffffffffffffffffffffffffffff1673ffffffffffffffffffffffffffffffffffffffff16815260200190815260200160002060009054906101000a900460ff16905092915050565b60007f80ac58cd000000000000000000000000000000000000000000000000000000007bffffffffffffffffffffffffffffffffffffffffffffffffffffffff1916827bffffffffffffffffffffffffffffffffffffffffffffffffffffffff1916148061195757507f5b5e139f000000000000000000000000000000000000000000000000000000007bffffffffffffffffffffffffffffffffffffffffffffffffffffffff1916827bffffffffffffffffffffffffffffffffffffffffffffffffffffffff1916145b806119675750611966826125d0565b5b9050919050565b6119778161263a565b6119b6576040517f08c379a00000000000000000000000000000000000000000000000000000000081526004016119ad90613612565b60405180910390fd5b50565b600033905090565b816004600083815260200190815260200160002060006101000a81548173ffffffffffffffffffffffffffffffffffffffff021916908373ffffffffffffffffffffffffffffffffffffffff160217905550808273ffffffffffffffffffffffffffffffffffffffff16611a3483610aaa565b73ffffffffffffffffffffffffffffffffffffffff167f8c5be1e5ebec7d5bd14f71427d1e84f3dd0314c0f7b2291e5b200ac8c7c3b92560405160405180910390a45050565b600080611a8683610aaa565b90508073ffffffffffffffffffffffffffffffffffffffff168473ffffffffffffffffffffffffffffffffffffffff161480611ac85750611ac781856117f8565b5b80611b0657508373ffffffffffffffffffffffffffffffffffffffff16611aee846105e3565b73ffffffffffffffffffffffffffffffffffffffff16145b91505092915050565b8273ffffffffffffffffffffffffffffffffffffffff16611b2f82610aaa565b73ffffffffffffffffffffffffffffffffffffffff1614611b85576040517f08c379a0000000000000000000000000000000000000000000000000000000008152600401611b7c90613a12565b60405180910390fd5b600073ffffffffffffffffffffffffffffffffffffffff168273ffffffffffffffffffffffffffffffffffffffff1603611bf4576040517f08c379a0000000000000000000000000000000000000000000000000000000008152600401611beb90613aa4565b60405180910390fd5b611c01838383600161267b565b8273ffffffffffffffffffffffffffffffffffffffff16611c2182610aaa565b73ffffffffffffffffffffffffffffffffffffffff1614611c77576040517f08c379a0000000000000000000000000000000000000000000000000000000008152600401611c6e90613a12565b60405180910390fd5b6004600082815260200190815260200160002060006101000a81549073ffffffffffffffffffffffffffffffffffffffff02191690556001600360008573ffffffffffffffffffffffffffffffffffffffff1673ffffffffffffffffffffffffffffffffffffffff168152602001908152602001600020600082825403925050819055506001600360008473ffffffffffffffffffffffffffffffffffffffff1673ffffffffffffffffffffffffffffffffffffffff16815260200190815260200160002060008282540192505081905550816002600083815260200190815260200160002060006101000a81548173ffffffffffffffffffffffffffffffffffffffff021916908373ffffffffffffffffffffffffffffffffffffffff160217905550808273ffffffffffffffffffffffffffffffffffffffff168473ffffffffffffffffffffffffffffffffffffffff167fddf252ad1be2c89b69c2b068fc378daa952ba7f163c4a11628f55a4df523b3ef60405160405180910390a4611e038383836001612681565b505050565b600081600001549050919050565b60006002600083815260200190815260200160002060009054906101000a900473ffffffffffffffffffffffffffffffffffffffff169050919050565b6001816000016000828254019250508190555050565b600073ffffffffffffffffffffffffffffffffffffffff168273ffffffffffffffffffffffffffffffffffffffff1603611ed8576040517f08c379a0000000000000000000000000000000000000000000000000000000008152600401611ecf90613b10565b60405180910390fd5b611ee18161263a565b15611f21576040517f08c379a0000000000000000000000000000000000000000000000000000000008152600401611f1890613b7c565b60405180910390fd5b611f2f60008383600161267b565b611f388161263a565b15611f78576040517f08c379a0000000000000000000000000000000000000000000000000000000008152600401611f6f90613b7c565b60405180910390fd5b6001600360008473ffffffffffffffffffffffffffffffffffffffff1673ffffffffffffffffffffffffffffffffffffffff16815260200190815260200160002060008282540192505081905550816002600083815260200190815260200160002060006101000a81548173ffffffffffffffffffffffffffffffffffffffff021916908373ffffffffffffffffffffffffffffffffffffffff160217905550808273ffffffffffffffffffffffffffffffffffffffff16600073ffffffffffffffffffffffffffffffffffffffff167fddf252ad1be2c89b69c2b068fc378daa952ba7f163c4a11628f55a4df523b3ef60405160405180910390a4612082600083836001612681565b5050565b61208f8261263a565b6120ce576040517f08c379a00000000000000000000000000000000000000000000000000000000081526004016120c590613c0e565b60405180910390fd5b806006600084815260200190815260200160002090816120ee9190613dda565b507ff8e1a15aba9398e019f0b49df1a4fde98ee17ae345cb5f6b5e2c27f5033e8ce78260405161211e9190612d6a565b60405180910390a15050565b6000811161216d576040517f08c379a000000000000000000000000000000000000000000000000000000000815260040161216490613ef8565b60405180910390fd5b60095434146121b1576040517f08c379a00000000000000000000000000000000000000000000000000000000081526004016121a8906137c8565b60405180910390fd5b6040518060a001604052808381526020013373ffffffffffffffffffffffffffffffffffffffff1681526020013073ffffffffffffffffffffffffffffffffffffffff16815260200182815260200160001515815250600b60008481526020019081526020016000206000820151816000015560208201518160010160006101000a81548173ffffffffffffffffffffffffffffffffffffffff021916908373ffffffffffffffffffffffffffffffffffffffff16021790555060408201518160020160006101000a81548173ffffffffffffffffffffffffffffffffffffffff021916908373ffffffffffffffffffffffffffffffffffffffff1602179055506060820151816003015560808201518160040160006101000a81548160ff0219169083151502179055509050506122ea333084611b0f565b817fb640004f1d14576d0c209e240cad0410e0d8c0c33a09375861fbadae2588a98d33308460006040516123219493929190613f18565b60405180910390a25050565b60008160000154905060008111612379576040517f08c379a000000000000000000000000000000000000000000000000000000000815260040161237090613fa9565b60405180910390fd5b6001810382600001819055505050565b8173ffffffffffffffffffffffffffffffffffffffff168373ffffffffffffffffffffffffffffffffffffffff16036123f7576040517f08c379a00000000000000000000000000000000000000000000000000000000081526004016123ee90614015565b60405180910390fd5b80600560008573ffffffffffffffffffffffffffffffffffffffff1673ffffffffffffffffffffffffffffffffffffffff16815260200190815260200160002060008473ffffffffffffffffffffffffffffffffffffffff1673ffffffffffffffffffffffffffffffffffffffff16815260200190815260200160002060006101000a81548160ff0219169083151502179055508173ffffffffffffffffffffffffffffffffffffffff168373ffffffffffffffffffffffffffffffffffffffff167f17307eab39ab6107e8899845ad3d59bd9653f200f220920489ca2b5937696c31836040516124e89190612b63565b60405180910390a3505050565b612500848484611b0f565b61250c84848484612687565b61254b576040517f08c379a0000000000000000000000000000000000000000000000000000000008152600401612542906140a7565b60405180910390fd5b50505050565b606060405180602001604052806000815250905090565b60606125738261196e565b600061257d612551565b9050600081511161259d57604051806020016040528060008152506125c8565b806125a78461280e565b6040516020016125b892919061397c565b6040516020818303038152906040525b915050919050565b60007f01ffc9a7000000000000000000000000000000000000000000000000000000007bffffffffffffffffffffffffffffffffffffffffffffffffffffffff1916827bffffffffffffffffffffffffffffffffffffffffffffffffffffffff1916149050919050565b60008073ffffffffffffffffffffffffffffffffffffffff1661265c83611e16565b73ffffffffffffffffffffffffffffffffffffffff1614159050919050565b50505050565b50505050565b60006126a88473ffffffffffffffffffffffffffffffffffffffff166128dc565b15612801578373ffffffffffffffffffffffffffffffffffffffff1663150b7a026126d16119b9565b8786866040518563ffffffff1660e01b81526004016126f3949392919061411c565b6020604051808303816000875af192505050801561272f57506040513d601f19601f8201168201806040525081019061272c919061417d565b60015b6127b1573d806000811461275f576040519150601f19603f3d011682016040523d82523d6000602084013e612764565b606091505b5060008151036127a9576040517f08c379a00000000000000000000000000000000000000000000000000000000081526004016127a0906140a7565b60405180910390fd5b805181602001fd5b63150b7a0260e01b7bffffffffffffffffffffffffffffffffffffffffffffffffffffffff1916817bffffffffffffffffffffffffffffffffffffffffffffffffffffffff191614915050612806565b600190505b949350505050565b60606000600161281d846128ff565b01905060008167ffffffffffffffff81111561283c5761283b612f87565b5b6040519080825280601f01601f19166020018201604052801561286e5781602001600182028036833780820191505090505b509050600082602001820190505b6001156128d1578080600190039150507f3031323334353637383961626364656600000000000000000000000000000000600a86061a8153600a85816128c5576128c46141aa565b5b0494506000850361287c575b819350505050919050565b6000808273ffffffffffffffffffffffffffffffffffffffff163b119050919050565b600080600090507a184f03e93ff9f4daa797ed6e38ed64bf6a1f010000000000000000831061295d577a184f03e93ff9f4daa797ed6e38ed64bf6a1f0100000000000000008381612953576129526141aa565b5b0492506040810190505b6d04ee2d6d415b85acef8100000000831061299a576d04ee2d6d415b85acef810000000083816129905761298f6141aa565b5b0492506020810190505b662386f26fc1000083106129c957662386f26fc1000083816129bf576129be6141aa565b5b0492506010810190505b6305f5e10083106129f2576305f5e10083816129e8576129e76141aa565b5b0492506008810190505b6127108310612a17576127108381612a0d57612a0c6141aa565b5b0492506004810190505b60648310612a3a5760648381612a3057612a2f6141aa565b5b0492506002810190505b600a8310612a49576001810190505b80915050919050565b6040518060a0016040528060008152602001600073ffffffffffffffffffffffffffffffffffffffff168152602001600073ffffffffffffffffffffffffffffffffffffffff168152602001600081526020016000151581525090565b6000604051905090565b600080fd5b600080fd5b60007fffffffff0000000000000000000000000000000000000000000000000000000082169050919050565b612af881612ac3565b8114612b0357600080fd5b50565b600081359050612b1581612aef565b92915050565b600060208284031215612b3157612b30612ab9565b5b6000612b3f84828501612b06565b91505092915050565b60008115159050919050565b612b5d81612b48565b82525050565b6000602082019050612b786000830184612b54565b92915050565b600081519050919050565b600082825260208201905092915050565b60005b83811015612bb8578082015181840152602081019050612b9d565b60008484015250505050565b6000601f19601f8301169050919050565b6000612be082612b7e565b612bea8185612b89565b9350612bfa818560208601612b9a565b612c0381612bc4565b840191505092915050565b60006020820190508181036000830152612c288184612bd5565b905092915050565b6000819050919050565b612c4381612c30565b8114612c4e57600080fd5b50565b600081359050612c6081612c3a565b92915050565b600060208284031215612c7c57612c7b612ab9565b5b6000612c8a84828501612c51565b91505092915050565b600073ffffffffffffffffffffffffffffffffffffffff82169050919050565b6000612cbe82612c93565b9050919050565b612cce81612cb3565b82525050565b6000602082019050612ce96000830184612cc5565b92915050565b612cf881612cb3565b8114612d0357600080fd5b50565b600081359050612d1581612cef565b92915050565b60008060408385031215612d3257612d31612ab9565b5b6000612d4085828601612d06565b9250506020612d5185828601612c51565b9150509250929050565b612d6481612c30565b82525050565b6000602082019050612d7f6000830184612d5b565b92915050565b600080600060608486031215612d9e57612d9d612ab9565b5b6000612dac86828701612d06565b9350506020612dbd86828701612d06565b9250506040612dce86828701612c51565b9150509250925092565b600081519050919050565b600082825260208201905092915050565b6000819050602082019050919050565b612e0d81612c30565b82525050565b6000612e1e82612c93565b9050919050565b612e2e81612e13565b82525050565b612e3d81612b48565b82525050565b60a082016000820151612e596000850182612e04565b506020820151612e6c6020850182612e25565b506040820151612e7f6040850182612e25565b506060820151612e926060850182612e04565b506080820151612ea56080850182612e34565b50505050565b6000612eb78383612e43565b60a08301905092915050565b6000602082019050919050565b6000612edb82612dd8565b612ee58185612de3565b9350612ef083612df4565b8060005b83811015612f21578151612f088882612eab565b9750612f1383612ec3565b925050600181019050612ef4565b5085935050505092915050565b60006020820190508181036000830152612f488184612ed0565b905092915050565b600060208284031215612f6657612f65612ab9565b5b6000612f7484828501612d06565b91505092915050565b600080fd5b600080fd5b7f4e487b7100000000000000000000000000000000000000000000000000000000600052604160045260246000fd5b612fbf82612bc4565b810181811067ffffffffffffffff82111715612fde57612fdd612f87565b5b80604052505050565b6000612ff1612aaf565b9050612ffd8282612fb6565b919050565b600067ffffffffffffffff82111561301d5761301c612f87565b5b61302682612bc4565b9050602081019050919050565b82818337600083830152505050565b600061305561305084613002565b612fe7565b90508281526020810184848401111561307157613070612f82565b5b61307c848285613033565b509392505050565b600082601f83011261309957613098612f7d565b5b81356130a9848260208601613042565b91505092915050565b600080604083850312156130c9576130c8612ab9565b5b600083013567ffffffffffffffff8111156130e7576130e6612abe565b5b6130f385828601613084565b925050602061310485828601612c51565b9150509250929050565b6000806040838503121561312557613124612ab9565b5b600061313385828601612c51565b925050602061314485828601612c51565b9150509250929050565b61315781612b48565b811461316257600080fd5b50565b6000813590506131748161314e565b92915050565b6000806040838503121561319157613190612ab9565b5b600061319f85828601612d06565b92505060206131b085828601613165565b9150509250929050565b600067ffffffffffffffff8211156131d5576131d4612f87565b5b6131de82612bc4565b9050602081019050919050565b60006131fe6131f9846131ba565b612fe7565b90508281526020810184848401111561321a57613219612f82565b5b613225848285613033565b509392505050565b600082601f83011261324257613241612f7d565b5b81356132528482602086016131eb565b91505092915050565b6000806000806080858703121561327557613274612ab9565b5b600061328387828801612d06565b945050602061329487828801612d06565b93505060406132a587828801612c51565b925050606085013567ffffffffffffffff8111156132c6576132c5612abe565b5b6132d28782880161322d565b91505092959194509250565b600080604083850312156132f5576132f4612ab9565b5b600061330385828601612d06565b925050602061331485828601612d06565b9150509250929050565b7f4e487b7100000000000000000000000000000000000000000000000000000000600052602260045260246000fd5b6000600282049050600182168061336557607f821691505b6020821081036133785761337761331e565b5b50919050565b7f4552433732313a20617070726f76616c20746f2063757272656e74206f776e6560008201527f7200000000000000000000000000000000000000000000000000000000000000602082015250565b60006133da602183612b89565b91506133e58261337e565b604082019050919050565b60006020820190508181036000830152613409816133cd565b9050919050565b7f4552433732313a20617070726f76652063616c6c6572206973206e6f7420746f60008201527f6b656e206f776e6572206f7220617070726f76656420666f7220616c6c000000602082015250565b600061346c603d83612b89565b915061347782613410565b604082019050919050565b6000602082019050818103600083015261349b8161345f565b9050919050565b7f4552433732313a2063616c6c6572206973206e6f7420746f6b656e206f776e6560008201527f72206f7220617070726f76656400000000000000000000000000000000000000602082015250565b60006134fe602d83612b89565b9150613509826134a2565b604082019050919050565b6000602082019050818103600083015261352d816134f1565b9050919050565b7f4e487b7100000000000000000000000000000000000000000000000000000000600052601160045260246000fd5b600061356e82612c30565b915061357983612c30565b925082820190508082111561359157613590613534565b5b92915050565b7f4e487b7100000000000000000000000000000000000000000000000000000000600052603260045260246000fd5b7f4552433732313a20696e76616c696420746f6b656e2049440000000000000000600082015250565b60006135fc601883612b89565b9150613607826135c6565b602082019050919050565b6000602082019050818103600083015261362b816135ef565b9050919050565b7f4552433732313a2061646472657373207a65726f206973206e6f74206120766160008201527f6c6964206f776e65720000000000000000000000000000000000000000000000602082015250565b600061368e602983612b89565b915061369982613632565b604082019050919050565b600060208201905081810360008301526136bd81613681565b9050919050565b7f4f6e6c79206974656d206f776e65722063616e20706572666f726d207468697360008201527f206f7065726174696f6e2e000000000000000000000000000000000000000000602082015250565b6000613720602b83612b89565b915061372b826136c4565b604082019050919050565b6000602082019050818103600083015261374f81613713565b9050919050565b7f5072696365206d75737420626520657175616c20746f206c697374696e67207060008201527f7269636500000000000000000000000000000000000000000000000000000000602082015250565b60006137b2602483612b89565b91506137bd82613756565b604082019050919050565b600060208201905081810360008301526137e1816137a5565b9050919050565b60006137f382612c30565b91506137fe83612c30565b925082820390508181111561381657613815613534565b5b92915050565b7f6f6e6c79206f776e6572206f6620746865206d61726b6574706c61636520636160008201527f6e206368616e676520746865206c697374696e67207072696365000000000000602082015250565b6000613878603a83612b89565b91506138838261381c565b604082019050919050565b600060208201905081810360008301526138a78161386b565b9050919050565b7f506c65617365207375626d6974207468652061736b696e67207072696365206960008201527f6e206f7264657220746f20636f6d706c65746520746865207075726368617365602082015250565b600061390a604083612b89565b9150613915826138ae565b604082019050919050565b60006020820190508181036000830152613939816138fd565b9050919050565b600081905092915050565b600061395682612b7e565b6139608185613940565b9350613970818560208601612b9a565b80840191505092915050565b6000613988828561394b565b9150613994828461394b565b91508190509392505050565b7f4552433732313a207472616e736665722066726f6d20696e636f72726563742060008201527f6f776e6572000000000000000000000000000000000000000000000000000000602082015250565b60006139fc602583612b89565b9150613a07826139a0565b604082019050919050565b60006020820190508181036000830152613a2b816139ef565b9050919050565b7f4552433732313a207472616e7366657220746f20746865207a65726f2061646460008201527f7265737300000000000000000000000000000000000000000000000000000000602082015250565b6000613a8e602483612b89565b9150613a9982613a32565b604082019050919050565b60006020820190508181036000830152613abd81613a81565b9050919050565b7f4552433732313a206d696e7420746f20746865207a65726f2061646472657373600082015250565b6000613afa602083612b89565b9150613b0582613ac4565b602082019050919050565b60006020820190508181036000830152613b2981613aed565b9050919050565b7f4552433732313a20746f6b656e20616c7265616479206d696e74656400000000600082015250565b6000613b66601c83612b89565b9150613b7182613b30565b602082019050919050565b60006020820190508181036000830152613b9581613b59565b9050919050565b7f45524337323155524953746f726167653a2055524920736574206f66206e6f6e60008201527f6578697374656e7420746f6b656e000000000000000000000000000000000000602082015250565b6000613bf8602e83612b89565b9150613c0382613b9c565b604082019050919050565b60006020820190508181036000830152613c2781613beb565b9050919050565b60008190508160005260206000209050919050565b60006020601f8301049050919050565b600082821b905092915050565b600060088302613c907fffffffffffffffffffffffffffffffffffffffffffffffffffffffffffffffff82613c53565b613c9a8683613c53565b95508019841693508086168417925050509392505050565b6000819050919050565b6000613cd7613cd2613ccd84612c30565b613cb2565b612c30565b9050919050565b6000819050919050565b613cf183613cbc565b613d05613cfd82613cde565b848454613c60565b825550505050565b600090565b613d1a613d0d565b613d25818484613ce8565b505050565b5b81811015613d4957613d3e600082613d12565b600181019050613d2b565b5050565b601f821115613d8e57613d5f81613c2e565b613d6884613c43565b81016020851015613d77578190505b613d8b613d8385613c43565b830182613d2a565b50505b505050565b600082821c905092915050565b6000613db160001984600802613d93565b1980831691505092915050565b6000613dca8383613da0565b9150826002028217905092915050565b613de382612b7e565b67ffffffffffffffff811115613dfc57613dfb612f87565b5b613e06825461334d565b613e11828285613d4d565b600060209050601f831160018114613e445760008415613e32578287015190505b613e3c8582613dbe565b865550613ea4565b601f198416613e5286613c2e565b60005b82811015613e7a57848901518255600182019150602085019450602081019050613e55565b86831015613e975784890151613e93601f891682613da0565b8355505b6001600288020188555050505b505050505050565b7f5072696365206d757374206265206174206c6561737420310000000000000000600082015250565b6000613ee2601883612b89565b9150613eed82613eac565b602082019050919050565b60006020820190508181036000830152613f1181613ed5565b9050919050565b6000608082019050613f2d6000830187612cc5565b613f3a6020830186612cc5565b613f476040830185612d5b565b613f546060830184612b54565b95945050505050565b7f436f756e7465723a2064656372656d656e74206f766572666c6f770000000000600082015250565b6000613f93601b83612b89565b9150613f9e82613f5d565b602082019050919050565b60006020820190508181036000830152613fc281613f86565b9050919050565b7f4552433732313a20617070726f766520746f2063616c6c657200000000000000600082015250565b6000613fff601983612b89565b915061400a82613fc9565b602082019050919050565b6000602082019050818103600083015261402e81613ff2565b9050919050565b7f4552433732313a207472616e7366657220746f206e6f6e20455243373231526560008201527f63656976657220696d706c656d656e7465720000000000000000000000000000602082015250565b6000614091603283612b89565b915061409c82614035565b604082019050919050565b600060208201905081810360008301526140c081614084565b9050919050565b600081519050919050565b600082825260208201905092915050565b60006140ee826140c7565b6140f881856140d2565b9350614108818560208601612b9a565b61411181612bc4565b840191505092915050565b60006080820190506141316000830187612cc5565b61413e6020830186612cc5565b61414b6040830185612d5b565b818103606083015261415d81846140e3565b905095945050505050565b60008151905061417781612aef565b92915050565b60006020828403121561419357614192612ab9565b5b60006141a184828501614168565b91505092915050565b7f4e487b7100000000000000000000000000000000000000000000000000000000600052601260045260246000fdfea264697066735822122078d219fae97ed033a5d67f8ccf9b7dc567399ab6a5b0b2084616abef4e95f7d064736f6c63430008180033",
  "linkReferences": {},
  "deployedLinkReferences": {}
}